{
  "contractName": "Fundraiser",
  "abi": [
    {
      "inputs": [
        {
          "internalType": "string",
          "name": "_name",
          "type": "string"
        },
        {
          "internalType": "string",
          "name": "_url",
          "type": "string"
        },
        {
          "internalType": "string",
          "name": "_imageURL",
          "type": "string"
        },
        {
          "internalType": "string",
          "name": "_description",
          "type": "string"
        },
        {
          "internalType": "address payable",
          "name": "_beneficiary",
          "type": "address"
        },
        {
          "internalType": "address",
          "name": "_custodian",
          "type": "address"
        }
      ],
      "stateMutability": "nonpayable",
      "type": "constructor"
    },
    {
      "anonymous": false,
      "inputs": [
        {
          "indexed": true,
          "internalType": "address",
          "name": "donor",
          "type": "address"
        },
        {
          "indexed": false,
          "internalType": "uint256",
          "name": "value",
          "type": "uint256"
        }
      ],
      "name": "DonationReceived",
      "type": "event"
    },
    {
      "anonymous": false,
      "inputs": [
        {
          "indexed": true,
          "internalType": "address",
          "name": "previousOwner",
          "type": "address"
        },
        {
          "indexed": true,
          "internalType": "address",
          "name": "newOwner",
          "type": "address"
        }
      ],
      "name": "OwnershipTransferred",
      "type": "event"
    },
    {
      "anonymous": false,
      "inputs": [
        {
          "indexed": false,
          "internalType": "uint256",
          "name": "amount",
          "type": "uint256"
        }
      ],
      "name": "Withdraw",
      "type": "event"
    },
    {
      "inputs": [],
      "name": "beneficiary",
      "outputs": [
        {
          "internalType": "address payable",
          "name": "",
          "type": "address"
        }
      ],
      "stateMutability": "view",
      "type": "function"
    },
    {
      "inputs": [],
      "name": "description",
      "outputs": [
        {
          "internalType": "string",
          "name": "",
          "type": "string"
        }
      ],
      "stateMutability": "view",
      "type": "function"
    },
    {
      "inputs": [],
      "name": "donationsCount",
      "outputs": [
        {
          "internalType": "uint256",
          "name": "",
          "type": "uint256"
        }
      ],
      "stateMutability": "view",
      "type": "function"
    },
    {
      "inputs": [],
      "name": "imageURL",
      "outputs": [
        {
          "internalType": "string",
          "name": "",
          "type": "string"
        }
      ],
      "stateMutability": "view",
      "type": "function"
    },
    {
      "inputs": [],
      "name": "name",
      "outputs": [
        {
          "internalType": "string",
          "name": "",
          "type": "string"
        }
      ],
      "stateMutability": "view",
      "type": "function"
    },
    {
      "inputs": [],
      "name": "owner",
      "outputs": [
        {
          "internalType": "address",
          "name": "",
          "type": "address"
        }
      ],
      "stateMutability": "view",
      "type": "function"
    },
    {
      "inputs": [],
      "name": "renounceOwnership",
      "outputs": [],
      "stateMutability": "nonpayable",
      "type": "function"
    },
    {
      "inputs": [],
      "name": "totalDonations",
      "outputs": [
        {
          "internalType": "uint256",
          "name": "",
          "type": "uint256"
        }
      ],
      "stateMutability": "view",
      "type": "function"
    },
    {
      "inputs": [
        {
          "internalType": "address",
          "name": "newOwner",
          "type": "address"
        }
      ],
      "name": "transferOwnership",
      "outputs": [],
      "stateMutability": "nonpayable",
      "type": "function"
    },
    {
      "inputs": [],
      "name": "url",
      "outputs": [
        {
          "internalType": "string",
          "name": "",
          "type": "string"
        }
      ],
      "stateMutability": "view",
      "type": "function"
    },
    {
      "stateMutability": "payable",
      "type": "receive"
    },
    {
      "inputs": [
        {
          "internalType": "address payable",
          "name": "_beneficiary",
          "type": "address"
        }
      ],
      "name": "setBeneficiary",
      "outputs": [],
      "stateMutability": "nonpayable",
      "type": "function"
    },
    {
      "inputs": [],
      "name": "myDonationsCount",
      "outputs": [
        {
          "internalType": "uint256",
          "name": "",
          "type": "uint256"
        }
      ],
      "stateMutability": "view",
      "type": "function"
    },
    {
      "inputs": [],
      "name": "donate",
      "outputs": [],
      "stateMutability": "payable",
      "type": "function"
    },
    {
      "inputs": [],
      "name": "myDonations",
      "outputs": [
        {
          "internalType": "uint256[]",
          "name": "values",
          "type": "uint256[]"
        },
        {
          "internalType": "uint256[]",
          "name": "dates",
          "type": "uint256[]"
        }
      ],
      "stateMutability": "view",
      "type": "function"
    },
    {
      "inputs": [],
      "name": "withdraw",
      "outputs": [],
      "stateMutability": "nonpayable",
      "type": "function"
    }
  ],
  "bytecode": "0x608060405234801562000010575f80fd5b5060405162001936380380620019368339818101604052810190620000369190620003eb565b620000566200004a620000fb60201b60201c565b6200010260201b60201c565b856001908162000067919062000736565b50846002908162000079919062000736565b5083600390816200008b919062000736565b5082600490816200009d919062000736565b508160055f6101000a81548173ffffffffffffffffffffffffffffffffffffffff021916908373ffffffffffffffffffffffffffffffffffffffff160217905550620000ef816200010260201b60201c565b5050505050506200081a565b5f33905090565b5f805f9054906101000a900473ffffffffffffffffffffffffffffffffffffffff169050815f806101000a81548173ffffffffffffffffffffffffffffffffffffffff021916908373ffffffffffffffffffffffffffffffffffffffff1602179055508173ffffffffffffffffffffffffffffffffffffffff168173ffffffffffffffffffffffffffffffffffffffff167f8be0079c531659141344cd1fd0a4f28419497f9722a3daafe3b4186f6b6457e060405160405180910390a35050565b5f604051905090565b5f80fd5b5f80fd5b5f80fd5b5f80fd5b5f601f19601f8301169050919050565b7f4e487b71000000000000000000000000000000000000000000000000000000005f52604160045260245ffd5b6200022482620001dc565b810181811067ffffffffffffffff82111715620002465762000245620001ec565b5b80604052505050565b5f6200025a620001c3565b905062000268828262000219565b919050565b5f67ffffffffffffffff8211156200028a5762000289620001ec565b5b6200029582620001dc565b9050602081019050919050565b5f5b83811015620002c1578082015181840152602081019050620002a4565b5f8484015250505050565b5f620002e2620002dc846200026d565b6200024f565b905082815260208101848484011115620003015762000300620001d8565b5b6200030e848285620002a2565b509392505050565b5f82601f8301126200032d576200032c620001d4565b5b81516200033f848260208601620002cc565b91505092915050565b5f73ffffffffffffffffffffffffffffffffffffffff82169050919050565b5f620003738262000348565b9050919050565b620003858162000367565b811462000390575f80fd5b50565b5f81519050620003a3816200037a565b92915050565b5f620003b58262000348565b9050919050565b620003c781620003a9565b8114620003d2575f80fd5b50565b5f81519050620003e581620003bc565b92915050565b5f805f805f8060c08789031215620004085762000407620001cc565b5b5f87015167ffffffffffffffff811115620004285762000427620001d0565b5b6200043689828a0162000316565b965050602087015167ffffffffffffffff8111156200045a5762000459620001d0565b5b6200046889828a0162000316565b955050604087015167ffffffffffffffff8111156200048c576200048b620001d0565b5b6200049a89828a0162000316565b945050606087015167ffffffffffffffff811115620004be57620004bd620001d0565b5b620004cc89828a0162000316565b9350506080620004df89828a0162000393565b92505060a0620004f289828a01620003d5565b9150509295509295509295565b5f81519050919050565b7f4e487b71000000000000000000000000000000000000000000000000000000005f52602260045260245ffd5b5f60028204905060018216806200054e57607f821691505b60208210810362000564576200056362000509565b5b50919050565b5f819050815f5260205f209050919050565b5f6020601f8301049050919050565b5f82821b905092915050565b5f60088302620005c87fffffffffffffffffffffffffffffffffffffffffffffffffffffffffffffffff826200058b565b620005d486836200058b565b95508019841693508086168417925050509392505050565b5f819050919050565b5f819050919050565b5f6200061e620006186200061284620005ec565b620005f5565b620005ec565b9050919050565b5f819050919050565b6200063983620005fe565b62000651620006488262000625565b84845462000597565b825550505050565b5f90565b6200066762000659565b620006748184846200062e565b505050565b5b818110156200069b576200068f5f826200065d565b6001810190506200067a565b5050565b601f821115620006ea57620006b4816200056a565b620006bf846200057c565b81016020851015620006cf578190505b620006e7620006de856200057c565b83018262000679565b50505b505050565b5f82821c905092915050565b5f6200070c5f1984600802620006ef565b1980831691505092915050565b5f620007268383620006fb565b9150826002028217905092915050565b6200074182620004ff565b67ffffffffffffffff8111156200075d576200075c620001ec565b5b62000769825462000536565b620007768282856200069f565b5f60209050601f831160018114620007ac575f841562000797578287015190505b620007a3858262000719565b86555062000812565b601f198416620007bc866200056a565b5f5b82811015620007e557848901518255600182019150602085019450602081019050620007be565b8683101562000805578489015162000801601f891682620006fb565b8355505b6001600288020188555050505b505050505050565b61110e80620008285f395ff3fe6080604052600436106100eb575f3560e01c80635600f04f11610089578063b90497e011610058578063b90497e0146102cc578063de2ed893146102f6578063ed88c68e14610320578063f2fde38b1461032a57610123565b80635600f04f14610238578063715018a6146102625780637284e416146102785780638da5cb5b146102a257610123565b80631c31f710116100c55780631c31f710146101a65780631f522595146101ce57806338af3eed146101f85780633ccfd60b1461022257610123565b80630180b97c1461012757806306fdde03146101515780631a57f7b41461017b57610123565b36610123576101053460065461035290919063ffffffff16565b60068190555060075f81548092919061011d90610bb4565b91905055005b5f80fd5b348015610132575f80fd5b5061013b610367565b6040516101489190610c0a565b60405180910390f35b34801561015c575f80fd5b506101656103ae565b6040516101729190610cad565b60405180910390f35b348015610186575f80fd5b5061018f61043a565b60405161019d929190610d84565b60405180910390f35b3480156101b1575f80fd5b506101cc60048036038101906101c79190610e17565b6105a7565b005b3480156101d9575f80fd5b506101e26105f2565b6040516101ef9190610c0a565b60405180910390f35b348015610203575f80fd5b5061020c6105f8565b6040516102199190610e51565b60405180910390f35b34801561022d575f80fd5b5061023661061d565b005b348015610243575f80fd5b5061024c6106c8565b6040516102599190610cad565b60405180910390f35b34801561026d575f80fd5b50610276610754565b005b348015610283575f80fd5b5061028c610767565b6040516102999190610cad565b60405180910390f35b3480156102ad575f80fd5b506102b66107f3565b6040516102c39190610e8a565b60405180910390f35b3480156102d7575f80fd5b506102e061081a565b6040516102ed9190610cad565b60405180910390f35b348015610301575f80fd5b5061030a6108a6565b6040516103179190610c0a565b60405180910390f35b6103286108ac565b005b348015610335575f80fd5b50610350600480360381019061034b9190610ecd565b6109b6565b005b5f818361035f9190610ef8565b905092915050565b5f60085f3373ffffffffffffffffffffffffffffffffffffffff1673ffffffffffffffffffffffffffffffffffffffff1681526020019081526020015f2080549050905090565b600180546103bb90610f58565b80601f01602080910402602001604051908101604052809291908181526020018280546103e790610f58565b80156104325780601f1061040957610100808354040283529160200191610432565b820191905f5260205f20905b81548152906001019060200180831161041557829003601f168201915b505050505081565b6060805f610446610367565b90508067ffffffffffffffff81111561046257610461610f88565b5b6040519080825280602002602001820160405280156104905781602001602082028036833780820191505090505b5092508067ffffffffffffffff8111156104ad576104ac610f88565b5b6040519080825280602002602001820160405280156104db5781602001602082028036833780820191505090505b5091505f5b818110156105a1575f60085f3373ffffffffffffffffffffffffffffffffffffffff1673ffffffffffffffffffffffffffffffffffffffff1681526020019081526020015f20828154811061053857610537610fb5565b5b905f5260205f2090600202019050805f015485838151811061055d5761055c610fb5565b5b602002602001018181525050806001015484838151811061058157610580610fb5565b5b60200260200101818152505050808061059990610bb4565b9150506104e0565b50509091565b6105af610a38565b8060055f6101000a81548173ffffffffffffffffffffffffffffffffffffffff021916908373ffffffffffffffffffffffffffffffffffffffff16021790555050565b60075481565b60055f9054906101000a900473ffffffffffffffffffffffffffffffffffffffff1681565b610625610a38565b5f47905060055f9054906101000a900473ffffffffffffffffffffffffffffffffffffffff1673ffffffffffffffffffffffffffffffffffffffff166108fc8290811502906040515f60405180830381858888f1935050505015801561068d573d5f803e3d5ffd5b507f5b6b431d4476a211bb7d41c20d1aab9ae2321deee0d20be3d9fc9b1093fa6e3d816040516106bd9190610c0a565b60405180910390a150565b600280546106d590610f58565b80601f016020809104026020016040519081016040528092919081815260200182805461070190610f58565b801561074c5780601f106107235761010080835404028352916020019161074c565b820191905f5260205f20905b81548152906001019060200180831161072f57829003601f168201915b505050505081565b61075c610a38565b6107655f610ab6565b565b6004805461077490610f58565b80601f01602080910402602001604051908101604052809291908181526020018280546107a090610f58565b80156107eb5780601f106107c2576101008083540402835291602001916107eb565b820191905f5260205f20905b8154815290600101906020018083116107ce57829003601f168201915b505050505081565b5f805f9054906101000a900473ffffffffffffffffffffffffffffffffffffffff16905090565b6003805461082790610f58565b80601f016020809104026020016040519081016040528092919081815260200182805461085390610f58565b801561089e5780601f106108755761010080835404028352916020019161089e565b820191905f5260205f20905b81548152906001019060200180831161088157829003601f168201915b505050505081565b60065481565b5f604051806040016040528034815260200142815250905060085f3373ffffffffffffffffffffffffffffffffffffffff1673ffffffffffffffffffffffffffffffffffffffff1681526020019081526020015f2081908060018154018082558091505060019003905f5260205f2090600202015f909190919091505f820151815f015560208201518160010155505061094860065434610352565b60068190555060075f81548092919061096090610bb4565b91905055503373ffffffffffffffffffffffffffffffffffffffff167f264f630d9efa0d07053a31163641d9fcc0adafc9d9e76f1c37c2ce3a558d2c52346040516109ab9190610c0a565b60405180910390a250565b6109be610a38565b5f73ffffffffffffffffffffffffffffffffffffffff168173ffffffffffffffffffffffffffffffffffffffff1603610a2c576040517f08c379a0000000000000000000000000000000000000000000000000000000008152600401610a2390611052565b60405180910390fd5b610a3581610ab6565b50565b610a40610b77565b73ffffffffffffffffffffffffffffffffffffffff16610a5e6107f3565b73ffffffffffffffffffffffffffffffffffffffff1614610ab4576040517f08c379a0000000000000000000000000000000000000000000000000000000008152600401610aab906110ba565b60405180910390fd5b565b5f805f9054906101000a900473ffffffffffffffffffffffffffffffffffffffff169050815f806101000a81548173ffffffffffffffffffffffffffffffffffffffff021916908373ffffffffffffffffffffffffffffffffffffffff1602179055508173ffffffffffffffffffffffffffffffffffffffff168173ffffffffffffffffffffffffffffffffffffffff167f8be0079c531659141344cd1fd0a4f28419497f9722a3daafe3b4186f6b6457e060405160405180910390a35050565b5f33905090565b7f4e487b71000000000000000000000000000000000000000000000000000000005f52601160045260245ffd5b5f819050919050565b5f610bbe82610bab565b91507fffffffffffffffffffffffffffffffffffffffffffffffffffffffffffffffff8203610bf057610bef610b7e565b5b600182019050919050565b610c0481610bab565b82525050565b5f602082019050610c1d5f830184610bfb565b92915050565b5f81519050919050565b5f82825260208201905092915050565b5f5b83811015610c5a578082015181840152602081019050610c3f565b5f8484015250505050565b5f601f19601f8301169050919050565b5f610c7f82610c23565b610c898185610c2d565b9350610c99818560208601610c3d565b610ca281610c65565b840191505092915050565b5f6020820190508181035f830152610cc58184610c75565b905092915050565b5f81519050919050565b5f82825260208201905092915050565b5f819050602082019050919050565b610cff81610bab565b82525050565b5f610d108383610cf6565b60208301905092915050565b5f602082019050919050565b5f610d3282610ccd565b610d3c8185610cd7565b9350610d4783610ce7565b805f5b83811015610d77578151610d5e8882610d05565b9750610d6983610d1c565b925050600181019050610d4a565b5085935050505092915050565b5f6040820190508181035f830152610d9c8185610d28565b90508181036020830152610db08184610d28565b90509392505050565b5f80fd5b5f73ffffffffffffffffffffffffffffffffffffffff82169050919050565b5f610de682610dbd565b9050919050565b610df681610ddc565b8114610e00575f80fd5b50565b5f81359050610e1181610ded565b92915050565b5f60208284031215610e2c57610e2b610db9565b5b5f610e3984828501610e03565b91505092915050565b610e4b81610ddc565b82525050565b5f602082019050610e645f830184610e42565b92915050565b5f610e7482610dbd565b9050919050565b610e8481610e6a565b82525050565b5f602082019050610e9d5f830184610e7b565b92915050565b610eac81610e6a565b8114610eb6575f80fd5b50565b5f81359050610ec781610ea3565b92915050565b5f60208284031215610ee257610ee1610db9565b5b5f610eef84828501610eb9565b91505092915050565b5f610f0282610bab565b9150610f0d83610bab565b9250828201905080821115610f2557610f24610b7e565b5b92915050565b7f4e487b71000000000000000000000000000000000000000000000000000000005f52602260045260245ffd5b5f6002820490506001821680610f6f57607f821691505b602082108103610f8257610f81610f2b565b5b50919050565b7f4e487b71000000000000000000000000000000000000000000000000000000005f52604160045260245ffd5b7f4e487b71000000000000000000000000000000000000000000000000000000005f52603260045260245ffd5b7f4f776e61626c653a206e6577206f776e657220697320746865207a65726f20615f8201527f6464726573730000000000000000000000000000000000000000000000000000602082015250565b5f61103c602683610c2d565b915061104782610fe2565b604082019050919050565b5f6020820190508181035f83015261106981611030565b9050919050565b7f4f776e61626c653a2063616c6c6572206973206e6f7420746865206f776e65725f82015250565b5f6110a4602083610c2d565b91506110af82611070565b602082019050919050565b5f6020820190508181035f8301526110d181611098565b905091905056fea26469706673582212208b1a68a76fdb0c118a4ddef1da10bf27e7f995d2846ef315692790d9f4ab1a7564736f6c63430008150033",
  "immutableReferences": {},
  "source": "// SPDX-License-Identifier: MIT\npragma solidity >=0.4.22 <0.9.0;\n\nimport \"@openzeppelin/contracts/access/Ownable.sol\";\nimport \"@openzeppelin/contracts/utils/math/SafeMath.sol\";\n\ncontract Fundraiser is Ownable {\n\n  using SafeMath for uint256;\n\n  string public name;\n  string public url;\n  string public imageURL;\n  string public description;\n  \n  address payable public beneficiary;\n\n  uint256 public totalDonations;\n  uint256 public donationsCount;\n\n  struct Donation {\n    uint256 value;\n    uint256 date;\n  }\n\n  mapping(address => Donation[]) private _donations;\n\n  event DonationReceived(\n    address indexed donor,\n    uint256 value\n  );\n\n  event Withdraw(uint256 amount);\n\n  constructor(\n    string memory _name,\n    string memory _url,\n    string memory _imageURL,\n    string memory _description,\n    address payable _beneficiary,\n    address _custodian\n  ) {\n    name = _name;\n    url = _url;\n    imageURL = _imageURL;\n    description = _description;\n    beneficiary = _beneficiary;\n    _transferOwnership(_custodian);\n  }\n  \n  function setBeneficiary(address payable _beneficiary) public onlyOwner {\n    beneficiary = _beneficiary;\n  }\n\n  function myDonationsCount() public view returns(uint256) {\n    return _donations[msg.sender].length;\n  }\n  \n  function donate() public payable {\n    Donation memory donation = Donation({\n      value: msg.value,\n      date: block.timestamp\n    });\n\n    _donations[msg.sender].push(donation);\n\n    // Calculate total donations amount\n    totalDonations = SafeMath.add(totalDonations, msg.value);\n\n    // Increment donations count\n    donationsCount++;\n\n    // Emit DonationReceived event\n    emit DonationReceived(msg.sender, msg.value);\n  }\n\n  function myDonations() public view returns(\n    uint256[] memory values,\n    uint256[] memory dates\n  ) {\n    uint256 count = myDonationsCount();\n    values = new uint256[](count);\n    dates = new uint256[](count);\n\n    for(uint256 i = 0; i < count; i++) {\n      Donation storage donation = _donations[msg.sender][i];\n      values[i] = donation.value;\n      dates[i] = donation.date;\n    }\n\n    return (\n      values,\n      dates\n    );\n  }\n\n  function withdraw() public onlyOwner {\n    uint256 balance = address(this).balance;\n    beneficiary.transfer(balance);\n    emit Withdraw(balance);\n  }\n\n  receive() external payable {\n    totalDonations = totalDonations.add(msg.value);\n    donationsCount++;\n  }\n}\n",
  "sourcePath": "/home/later/Documents/solidity/fundraiser/contracts/Fundraiser.sol",
  "compiler": {
    "name": "solc",
    "version": "0.8.21+commit.d9974bed.Emscripten.clang"
  },
  "schemaVersion": "3.4.16",
  "updatedAt": "2023-10-18T20:53:33.255Z",
  "devdoc": {
    "kind": "dev",
    "methods": {
      "owner()": {
        "details": "Returns the address of the current owner."
      },
      "renounceOwnership()": {
        "details": "Leaves the contract without owner. It will not be possible to call `onlyOwner` functions. Can only be called by the current owner. NOTE: Renouncing ownership will leave the contract without an owner, thereby disabling any functionality that is only available to the owner."
      },
      "transferOwnership(address)": {
        "details": "Transfers ownership of the contract to a new account (`newOwner`). Can only be called by the current owner."
      }
    },
    "version": 1
  },
  "userdoc": {
    "kind": "user",
    "methods": {},
    "version": 1
  }
}